:040800000CEF04F005
:10080800FACF24F1FBCF25F1E9CF26F1E3ED0BF088
:1008180000EE00F010EE02F014EC04F0F8EF08F02F
:0E082800EE6AE550E150FCE1E250FAE1120008
:1010000000494E542044656D6F2020202020202070
:101010002020202000002020202020202020202010
:101020002020202020202020200000000101236F0C
:10103000000E010101011E6F010123510101010197
:101040001CAF01D001D018D0010101011C1F01010A
:101050001B1F01011A1F0101196D000E01011A2346
:1010600001011B2301011C230101236F010E01015A
:1010700001011E6F010123510101010118AF01D0CF
:1010800001D014D001010101181F0101171F010136
:10109000161F0101156D000E010116230101172312
:1010A00001011823010E010101011E1B000E0101A7
:1010B00001011F6F000E0101206F000E0101216F61
:1010C000000E0101226F01011C5119111A111B118F
:1010D000D8B401D001D06BD00101236F010E010102
:1010E00001011D6F010123510DD00101D8900101B3
:1010F000193701011A3701011B3701011C370101A2
:1011000001011D2B010101011CAF01D001D0EDD760
:101110000101D89001011F3701012037010121375A
:101120000101223701010101195101010101155D80
:10113000010101011A5101010101165901010101C9
:101140001B51010101011759010101011C5101014C
:1011500001011859D8A001D001D01BD00101010113
:10116000195101010101155F010101011A5101012C
:101170000101165B010101011B5101010101175B16
:10118000010101011C5101010101185B0101010173
:101190001F810101D89001011C3301011B330101A2
:1011A0001A3301011933010101011D2FB1D70101CA
:1011B00001011E51D8B401D001D010D001010101AC
:1011C000221F0101211F0101201F01011F6D000EBF
:1011D0000101202301012123010122231FC115F157
:1011E00020C116F121C117F122C118F100D012005F
:1011F000000E926E9368000E946E000E956E000EB7
:10120000966E0101016F0F0EC16E0101015158EC84
:101210000BF00101016F000E01010101046F0101DA
:1012200001510101026F000E01010101036F010173
:101230000251A1EC0BF00101016F000E010101014F
:10124000006F01010151130E01010101006501D080
:1012500001D001D01BD0010E010101010025F66E65
:10126000F76A100EF722F86A000EF8220800010152
:10127000F5CF15F188EC0CF001010101002B130EE4
:1012800001010101006501D001D0E5D70101016F25
:10129000000E01010101046F010101510101026F02
:1012A000010E01010101036F01010251A1EC0BF0DC
:1012B0000101016F000E01010101006F01010151E7
:1012C000130E01010101006501D001D001D01BD036
:1012D000160E010101010025F66EF76A100EF722C5
:1012E000F86A000EF82208000101F5CF15F188EC2C
:1012F0000CF001010101002B130E01010101006539
:1013000001D001D0E5D7F2889380F18CF0869382EA
:10131000F18AF0889384F188F28E000E006E000E40
:10132000016E0101016F000E01010101046F010155
:1013300001510101026F010E01010101036F010161
:101340000251A1EC0BF00101016F000E010101013E
:10135000086F010101510101026F030E010101013A
:10136000076F01010251010100C003F1010101C039
:1013700004F10101000E010104BFFF0E0101056F20
:101380000101066FD0EC09F0140E01010101076F95
:10139000000E0101086F22EC0CF0C3D70CEF04F033
:1013A0000101010106AF01D001D01BD00101146F72
:1013B0002D0E01010101156F0101145188EC0CF093
:1013C00001010101061F0101051F0101041F0101A7
:1013D000036D000E01010423010105230101062311
:1013E0000AD00101146F200E01010101156F0101E6
:1013F000145188EC0CF00101146F000E0101010181
:10140000096F01011451090E01010101096501D0A3
:1014100001D001D04ED001010A0E010101010925C0
:10142000E96EEA6A0101010EEA220A0E01010101D8
:10143000196F000E01011A6F000E01011B6F000EE3
:1014400001011C6F03C115F104C116F105C117F1AB
:1014500006C118F194EC0AF0010101011551EF6E7B
:101460000A0E01010101196F000E01011A6F000E31
:1014700001011B6F000E01011C6F03C115F104C1B6
:1014800016F105C117F106C118F116EC08F015C1E7
:1014900003F116C104F117C105F118C106F10101EC
:1014A0000101092B090E01010101096501D001D0DB
:1014B000B2D707C109F101010101096701D001D0CB
:1014C00001D031D00101010108510101010109637D
:1014D00001D001D00AD00101146F2E0E01010101CB
:1014E000156F0101145188EC0CF009C114F1FF0EC5
:1014F0000101142701010A0E01011425E96EEA6AAF
:101500000101010EEA22EF50300F01010101156FB8
:1015100088EC0CF0010101010907010101010967D3
:1015200001D001D0CFD7120001011F6F000E0101C1
:1015300001011D6F01011F510101010118AF01D00F
:1015400001D018D001010101181F0101171F01016D
:10155000161F0101156D000E01011623010117234D
:101560000101182301011F6F010E010101011D6F0F
:1015700001011F51010101011CAF01D001D010D0A8
:10158000010101011C1F01011B1F01011A1F0101A3
:10159000196D000E01011A2301011B2301011C23F7
:1015A00001011C5119111A111B11D8B401D001D01D
:1015B0005ED001011F6F010E010101011E6F0101CB
:1015C0001F510DD00101D8900101193701011A37BF
:1015D00001011B3701011C37010101011E2B010113
:1015E00001011CAF01D001D0EDD70101010119515A
:1015F00001010101155D010101011A510101010102
:101600001659010101011B51010101011759010185
:1016100001011C51010101011859D8A001D001D0CC
:1016200018D001010101195101010101155F0101EA
:1016300001011A5101010101165B010101011B5158
:1016400001010101175B010101011C5101010101AF
:10165000185B0101D89001011C3301011B3301010A
:101660001A3301011933010101011E2FBED70101F7
:1016700001011D51D8B401D001D010D001010101E8
:10168000181F0101171F0101161F0101156D000E22
:1016900001011623010117230101182315C115F1BA
:1016A00016C116F117C117F118C118F100D01200B8
:1016B000010E956E83920101036F330E010101014A
:1016C000056F0101035161EC0CF00101036F320E53
:1016D00001010101056F0101035161EC0CF00101F1
:1016E000036F280E01010101056F0101035161EC37
:1016F0000CF00101036F0E0E01010101056F0101E4
:10170000035161EC0CF00101036F010E01010101B5
:10171000056F0101035161EC0CF00101036F060E2E
:1017200001010101056F0101035161EC0CF0640E30
:1017300001010101076F000E0101086F22EC0CF09E
:10174000120001010101036701D001D009D001019C
:1017500001010451800F01010101056F61EC0CF0E2
:10176000010101010305D8A401D001D009D0010174
:1017700001010451C00F01010101056F61EC0CF082
:10178000010101010351020AD8A401D001D009D0FE
:10179000010101010451940F01010101056F61EC88
:1017A0000CF0010101010351030AD8A401D001D0BA
:1017B00009D0010101010451D40F01010101056F9C
:1017C00061EC0CF012000600EACF27F1E1CF28F11E
:1017D000E2CF29F1D9CF2AF1DACF2BF1F3CF2CF1D7
:1017E000F4CF2DF1F6CF2EF1F7CF2FF1F8CF30F166
:1017F000F2A201D001D003D0004A012AF292F0A057
:1018000001D001D004D00006D8A00106F09030C16C
:10181000F8FF2FC1F7FF2EC1F6FF2DC1F4FF2CC139
:10182000F3FF2BC1DAFF2AC1D9FF29C1E2FF28C18A
:10183000E1FF27C1EAFF26C1E9FF25C1FBFF24C163
:10184000FAFF1100000E01010101096F000E0101F4
:101850000A6F26D0000E010101010B6F000E01017D
:101860000C6F690E010101010B5D020E01010C59A3
:10187000D8A001D001D001D00FD0010101010B4B44
:101880000C2B690E010101010B5D020E01010C59C7
:10189000D8A001D001D0F1D701010101094B0A2BD9
:1018A00001010101075101010101095D010101016E
:1018B0000851010101010A59D8A001D001D0CAD7AD
:1018C0001200839405C106F1F00E01010617835042
:1018D0000F0B01010611836EC1EC0CF005C106F17E
:1018E0000101063BF00E0617F00E010106178350AA
:1018F0000F0B01010611836EC1EC0CF00A0E010101
:101900000101076F000E0101086F22EC0CF01200BC
:10191000838415C116F1F00E0101161783500F0BC9
:1019200001011611836EC1EC0CF015C116F1010115
:10193000163BF00E1617F00E0101161783500F0B11
:1019400001011611836EC1EC0CF012000101186F39
:10195000000E01010101176F01011851130E010161
:101960000101176501D001D001D00AD001010101A8
:10197000172B130E01010101176501D001D0F6D715
:1019800012008396A6EC0CF08386A6EC0CF08396EE
:06199000A6EC0CF01200B1
:00000001FF
