:040800000CEF04F005
:10080800FACF0FF1FBCF10F1E9CF11F110ED08F09D
:1008180000EE00F010EE12F014EC04F0A6EF08F071
:0E082800EE6AE550E150FCE1E250FAE1120008
:1010000000342043686F726420202020202020209C
:10101000202020200000CB538E7D93690E5E0000BF
:101020000600EACF12F1E1CF13F1E2CF14F1D9CFEC
:1010300015F1DACF16F1F3CF17F1F4CF18F1F6CF9F
:1010400019F1F7CF1AF1F8CF1BF1F2A401D001D0BA
:101050000FD000C00DF101C00EF101010D1F0E1FD8
:101060000D4B0E2B0DC1D6FF0EC1D7FF8270F2942F
:101070009EA001D001D00FD002C00DF103C00EF12F
:1010800001010D1F0E1F0D4B0E2B0DC1CEFF0EC10A
:10109000CFFF82729E909EA201D001D029D081A064
:1010A00001D001D024D0180EF66E100EF76E000E8F
:1010B000F86E0900F5CF00F00A00F5CF01F01A0E26
:1010C000F66E100EF76E000EF86E0900F5CF02F006
:1010D0000A00F5CF03F0160EF66E100EF76E000E36
:1010E000F86E0900F5CF04F00A00F5CF05F09E92E6
:1010F000A1A201D001D00FD004C00DF105C00EF1A6
:1011000001010D1F0E1F0D4B0E2B0DC1B2FF0EC1A5
:10111000B3FF8276A1921BC1F8FF1AC1F7FF19C174
:10112000F6FF18C1F4FF17C1F3FF16C1DAFF15C1AE
:10113000D9FF14C1E2FF13C1E1FF12C1EAFF11C1DF
:10114000E9FF10C1FBFF0FC1FAFF1100000E926E04
:101150009368000E946E000E956E000E966E01015F
:10116000016F0F0EC16E0101015129EC09F001015F
:10117000016F000E01010101046F01010151010124
:10118000026F000E01010101036F0101025172ECB7
:1011900009F00101016F000E01010101006F010161
:1011A0000151130E01010101006501D001D001D0F0
:1011B0001BD0010E010101010025F66EF76A100E29
:1011C000F722F86A000EF82208000101F5CF03F1BA
:1011D0001AEC0AF001010101002B130E01010101BB
:1011E000006501D001D0E5D7D59A0101016F880EC5
:1011F000D56E01010151D58EF28AF184F28CCD9227
:101200000101016F810ECD6E01010151CD809D80E4
:101210009F80F28C0101016F4F0ECA6E01010151D6
:101220000101016FEE0ECB6E01010151CA849D8256
:101230009F82F28CB1920101016F810EB16E0101AA
:101240000151B180A082A282F28CF28EFFD70CEF06
:1012500004F0010E956E83920101036F330E0101BC
:101260000101056F01010351F3EC09F00101036F66
:10127000320E01010101056F01010351F3EC09F088
:101280000101036F280E01010101056F01010351E6
:10129000F3EC09F00101036F0E0E01010101056F6E
:1012A00001010351F3EC09F00101036F010E01018B
:1012B0000101056F01010351F3EC09F00101036F16
:1012C000060E01010101056F01010351F3EC09F064
:1012D000640E01010101076F000E0101086FB4ECFB
:1012E00009F0120001010101036701D001D009D00A
:1012F000010101010451800F01010101056FF3ECAF
:1013000009F0010101010305D8A401D001D009D0E1
:10131000010101010451C00F01010101056FF3EC4E
:1013200009F0010101010351020AD8A401D001D042
:1013300009D0010101010451940F01010101056F60
:10134000F3EC09F0010101010351030AD8A401D013
:1013500001D009D0010101010451D40F01010101A3
:10136000056FF3EC09F01200000E01010101096F95
:10137000000E01010A6F26D0000E010101010B6F62
:10138000000E01010C6F690E010101010B5D020EDF
:1013900001010C59D8A001D001D001D00FD001011A
:1013A00001010B4B0C2B690E010101010B5D020EBB
:1013B00001010C59D8A001D001D0F1D701010101E0
:1013C000094B0A2B01010101075101010101095DCE
:1013D000010101010851010101010A59D8A001D000
:1013E00001D0CAD71200839405C106F1F00E0101A5
:1013F000061783500F0B01010611836E53EC0AF0A0
:1014000005C106F10101063BF00E0617F00E0101C1
:10141000061783500F0B01010611836E53EC0AF07F
:101420000A0E01010101076F000E0101086FB4EC03
:1014300009F01200838403C104F1F00E01010417C6
:1014400083500F0B01010411836E53EC0AF003C1AA
:1014500004F10101043BF00E0417F00E0101041722
:1014600083500F0B01010411836E53EC0AF012003C
:101470000101086F000E01010101076F0101085110
:10148000130E01010101076501D001D001D00AD07E
:1014900001010101072B130E01010101076501D0B4
:1014A00001D0F6D71200839638EC0AF0838638EC28
:0A14B0000AF0839638EC0AF01200EF
:00000001FF
