:040800000CEF04F005
:10080800FACF24F1FBCF25F1E9CF26F1F3ED0CF077
:1008180000EE00F010EE08F014EC04F040EF08F0E1
:0E082800EE6AE550E150FCE1E250FAE1120008
:101000000048756E67727920486970706F73202090
:1010100020202020000052423120746F2073746120
:101020007274202020202020200000503120576999
:101030006E7321202020202020202020202000004E
:1010400050322057696E732120202020202020203C
:10105000202020000047616D652053746172742068
:1010600020202020202020200000546965212020FD
:1010700020202020202020202020202020000000D0
:10108000000E926E9368000E946E000E956E000E28
:10109000966E0101016F0F0EC16E010101513EEC10
:1010A0000DF00101016F000E01010101046F01014A
:1010B00001510101026F000E01010101036F0101E5
:1010C000025187EC0DF00101016F000E01010101D9
:1010D000006F01010151130E01010101006501D0F2
:1010E00001D001D01BD0010E010101010025F66ED7
:1010F000F76A100EF722F86A000EF82208000101C4
:10110000F5CF15F12FEC0EF001010101002B130EAC
:1011100001010101006501D001D0E5D70101016F96
:10112000000E01010101046F010101510101026F73
:10113000010E01010101036F0101025187EC0DF065
:101140000101016F000E01010101006F0101015158
:10115000130E01010101006501D001D001D01BD0A7
:10116000160E010101010025F66EF76A100EF72236
:10117000F86A000EF82208000101F5CF15F12FECF6
:101180000EF001010101002B130E010101010065A8
:1011900001D001D0E5D7D00E01010101076F070E84
:1011A0000101086FC9EC0DF00101016F010E010191
:1011B0000101056F0101015108EC0EF0F2889380E6
:1011C000F18CF0889384F188D59A0101016F880E23
:1011D000D56E01010151D58EF28AF184F28CF28E26
:1011E000000E026E000E036E000E006E000E016E09
:1011F000000E026E000E036E000E006E000E016EF9
:1012000081A201D001D082D10101016F000E010144
:101210000101046F010101510101026F010E010181
:101220000101036F0101025187EC0DF00101016F13
:10123000000E01010101006F01010151130E0101B6
:101240000101006501D001D001D01BD0550E010174
:1012500001010025F66EF76A100EF722F86A000EFB
:10126000F82208000101F5CF15F12FEC0EF0010175
:101270000101002B130E01010101006501D001D015
:10128000E5D7100E01010101076F270E0101086F5C
:10129000C9EC0DF00101016F000E01010101046FA5
:1012A000010101510101026F000E01010101036FF3
:1012B0000101025187EC0DF00101016F000E0101E7
:1012C0000101086F010101510101026F030E0101CB
:1012D0000101076F01010251010102C003F1010187
:1012E00003C004F10101000E010104BFFF0E010162
:1012F000056F0101066F6BEC0BF00101016F000E31
:1013000001010101086F010101510101026F030E8A
:1013100001010101076F01010251010100C003F148
:10132000010101C004F10101000E010104BFFF0E23
:101330000101056F0101066F6BEC0BF00150800A93
:101340000101016F0250005C0350800A0101015944
:10135000D8B001D001D03ED00101016F000E0101D3
:101360000101046F010101510101026F010E010130
:101370000101036F0101025187EC0DF00101016FC2
:10138000000E01010101006F01010151130E010165
:101390000101006501D001D001D01BD02B0E01014D
:1013A00001010025F66EF76A100EF722F86A000EAA
:1013B000F82208000101F5CF15F12FEC0EF0010124
:1013C0000101002B130E01010101006501D001D0C4
:1013D000E5D789D00350800A0101016F0050025CFB
:1013E0000150800A01010159D8B001D001D03ED08E
:1013F0000101016F000E01010101046F01010151A2
:101400000101026F010E01010101036F010102518F
:1014100087EC0DF00101016F000E01010101006F69
:1014200001010151130E01010101006501D001D03C
:1014300001D01BD0400E010101010025F66EF76AB4
:10144000100EF722F86A000EF82208000101F5CF0D
:1014500015F12FEC0EF001010101002B130E01011B
:101460000101006501D001D0E5D73DD00101016F38
:10147000000E01010101046F010101510101026F20
:10148000010E01010101036F0101025187EC0DF012
:101490000101016F000E01010101006F0101015105
:1014A000130E01010101006501D001D001D01BD054
:1014B0006A0E010101010025F66EF76A100EF7228F
:1014C000F86A000EF82208000101F5CF15F12FECA3
:1014D0000EF001010101002B130E01010101006555
:1014E00001D001D0E5D7100E01010101076F270ED1
:1014F0000101086FC9EC0DF00101016F010E01013E
:101500000101056F0101015108EC0EF071D60CEFDD
:1015100004F00101236F000E010101011E6F0101A2
:101520002351010101011CAF01D001D018D00101EC
:1015300001011C1F01011B1F01011A1F0101196D6F
:10154000000E01011A2301011B2301011C230101CB
:10155000236F010E010101011E6F010123510101E1
:10156000010118AF01D001D014D001010101181FF1
:101570000101171F0101161F0101156D000E010168
:1015800016230101172301011823010E0101010196
:101590001E1B000E010101011F6F000E0101206FD3
:1015A000000E0101216F000E0101226F01011C518B
:1015B00019111A111B11D8B401D001D06BD001013F
:1015C000236F010E010101011D6F010123510DD097
:1015D0000101D8900101193701011A3701011B37A8
:1015E00001011C37010101011D2B010101011CAF8B
:1015F00001D001D0EDD70101D89001011F370101C1
:101600002037010121370101223701010101195160
:1016100001010101155D010101011A5101010101E1
:101620001659010101011B51010101011759010165
:1016300001011C51010101011859D8A001D001D0AC
:101640001BD001010101195101010101155F0101C7
:1016500001011A5101010101165B010101011B5138
:1016600001010101175B010101011C51010101018F
:10167000185B010101011F810101D89001011C3398
:1016800001011B3301011A33010119330101010169
:101690001D2FB1D7010101011E51D8B401D001D0D5
:1016A00010D001010101221F0101211F0101201F92
:1016B00001011F6D000E0101202301012123010101
:1016C00022231FC115F120C116F121C117F122C13A
:1016D00018F100D012000101010106AF01D001D0C4
:1016E0001BD00101146F2D0E01010101156F0101C5
:1016F00014512FEC0EF001010101061F0101051F1D
:101700000101041F0101036D000E01010423010109
:101710000523010106230AD00101146F200E0101E7
:101720000101156F010114512FEC0EF00101146F2E
:10173000000E01010101096F01011451090E01019F
:101740000101096501D001D001D04ED001010A0E7E
:10175000010101010925E96EEA6A0101010EEA228F
:101760000A0E01010101196F000E01011A6F000E2E
:1017700001011B6F000E01011C6F03C115F104C1B3
:1017800016F105C117F106C118F12FEC0CF001019B
:1017900001011551EF6E0A0E01010101196F000ED2
:1017A00001011A6F000E01011B6F000E01011C6F79
:1017B00003C115F104C116F105C117F106C118F1F5
:1017C00089EC0AF015C103F116C104F117C105F146
:1017D00018C106F101010101092B090E01010101E6
:1017E000096501D001D0B2D707C109F1010101019A
:1017F000096701D001D001D031D0010101010851A8
:1018000001010101096301D001D00AD00101146F67
:101810002E0E01010101156F010114512FEC0EF084
:1018200009C114F1FF0E0101142701010A0E010183
:101830001425E96EEA6A0101010EEA22EF50300F29
:1018400001010101156F2FEC0EF0010101010907E3
:1018500001010101096701D001D0CFD712000101B8
:101860001F6F000E010101011D6F01011F510101D8
:10187000010118AF01D001D018D001010101181FDA
:101880000101171F0101161F0101156D000E010155
:101890001623010117230101182301011F6F010EF7
:1018A000010101011D6F01011F51010101011CAF67
:1018B00001D001D010D0010101011C1F01011B1F2B
:1018C00001011A1F0101196D000E01011A23010106
:1018D0001B2301011C2301011C5119111A111B1199
:1018E000D8B401D001D05ED001011F6F010E0101FB
:1018F00001011E6F01011F510DD00101D89001019E
:10190000193701011A3701011B3701011C37010189
:1019100001011E2B010101011CAF01D001D0EDD747
:1019200001010101195101010101155D01010101CF
:101930001A51010101011659010101011B51010157
:1019400001011759010101011C510101010118593F
:10195000D8A001D001D018D0010101011951010115
:101960000101155F010101011A5101010101165B1D
:10197000010101011B5101010101175B010101017D
:101980001C5101010101185B0101D89001011C33B8
:1019900001011B3301011A33010119330101010156
:1019A0001E2FBED7010101011D51D8B401D001D0B5
:1019B00010D001010101181F0101171F0101161F9D
:1019C0000101156D000E010116230101172301010C
:1019D000182315C115F116C116F117C117F118C159
:1019E00018F100D012000600EACF27F1E1CF28F16C
:1019F000E2CF29F1D9CF2AF1DACF2BF1F3CF2CF1B5
:101A0000F4CF2DF1F6CF2EF1F7CF2FF1F8CF30F143
:101A1000F2A401D001D009D0000E0426000E052248
:101A2000010E0622000E0722F294F2A201D001D08C
:101A300003D0024A032AF292F0A201D001D003D0CF
:101A4000004A012AF09230C1F8FF2FC1F7FF2EC1E2
:101A5000F6FF2DC1F4FF2CC1F3FF2BC1DAFF2AC121
:101A6000D9FF29C1E2FF28C1E1FF27C1EAFF26C152
:101A7000E9FF25C1FBFF24C1FAFF1100010E956E9D
:101A800083920101036F330E01010101056F010112
:101A9000035108EC0EF00101036F320E0101010148
:101AA000056F0101035108EC0EF00101036F280ED0
:101AB00001010101056F0101035108EC0EF0010164
:101AC000036F0E0E01010101056F0101035108ECC6
:101AD0000EF00101036F010E01010101056F01010B
:101AE000035108EC0EF00101036F060E0101010124
:101AF000056F0101035108EC0EF0640E01010101B4
:101B0000076F000E0101086FC9EC0DF01200010112
:101B10000101036701D001D009D001010101045185
:101B2000800F01010101056F08EC0EF001010101B8
:101B30000305D8A401D001D009D00101010104514D
:101B4000C00F01010101056F08EC0EF00101010158
:101B50000351020AD8A401D001D009D0010101012A
:101B60000451940F01010101056F08EC0EF0010111
:101B700001010351030AD8A401D001D009D0010109
:101B800001010451D40F01010101056F08EC0EF0B1
:101B90001200000E01010101096F000E01010A6F20
:101BA00026D0000E010101010B6F000E01010C6F28
:101BB000690E010101010B5D020E01010C59D8A053
:101BC00001D001D001D00FD0010101010B4B0C2B32
:101BD000690E010101010B5D020E01010C59D8A033
:101BE00001D001D0F1D701010101094B0A2B0101FC
:101BF0000101075101010101095D010101010851C4
:101C0000010101010A59D8A001D001D0CAD71200A0
:101C1000839405C106F1F00E0101061783500F0BE6
:101C200001010611836E68EC0EF005C106F1010199
:101C3000063BF00E0617F00E0101061783500F0B3E
:101C400001010611836E68EC0EF00A0E010101011C
:101C5000076F000E0101086FC9EC0DF012008384BC
:101C600015C116F1F00E0101161783500F0B01017B
:101C70001611836E68EC0EF015C116F10101163BCA
:101C8000F00E1617F00E0101161783500F0B01010D
:101C90001611836E68EC0EF012000101186F000E31
:101CA00001010101176F01011851130E010101011A
:101CB000176501D001D001D00AD001010101172B15
:101CC000130E01010101176501D001D0F6D71200F2
:101CD00083964DEC0EF083864DEC0EF083964DEC22
:041CE0000EF01200F0
:00000001FF
